{
  "contractName": "Keno",
  "abi": [
    {
      "anonymous": false,
      "inputs": [
        {
          "indexed": false,
          "internalType": "uint256",
          "name": "new_price",
          "type": "uint256"
        },
        {
          "indexed": false,
          "internalType": "uint256",
          "name": "new_draw",
          "type": "uint256"
        }
      ],
      "name": "PricePoolUpdated",
      "type": "event"
    },
    {
      "anonymous": false,
      "inputs": [
        {
          "indexed": false,
          "internalType": "string",
          "name": "",
          "type": "string"
        }
      ],
      "name": "drawEnded",
      "type": "event"
    },
    {
      "inputs": [
        {
          "internalType": "string",
          "name": "numbers",
          "type": "string"
        }
      ],
      "name": "createBet",
      "outputs": [],
      "stateMutability": "payable",
      "type": "function",
      "payable": true
    },
    {
      "inputs": [],
      "name": "getPricePool",
      "outputs": [
        {
          "internalType": "uint256",
          "name": "",
          "type": "uint256"
        }
      ],
      "stateMutability": "view",
      "type": "function",
      "constant": true
    },
    {
      "inputs": [],
      "name": "getDrawCountDown",
      "outputs": [
        {
          "internalType": "uint256",
          "name": "",
          "type": "uint256"
        }
      ],
      "stateMutability": "view",
      "type": "function",
      "constant": true
    }
  ],
  "bytecode": "0x6080604052600080556014600155600060025534801561001e57600080fd5b50610a4a8061002e6000396000f3fe6080604052600436106100345760003560e01c80631fec1cf7146100395780633737815614610064578063b3a235781461008f575b600080fd5b34801561004557600080fd5b5061004e6100ab565b60405161005b9190610324565b60405180910390f35b34801561007057600080fd5b506100796100b5565b6040516100869190610324565b60405180910390f35b6100a960048036038101906100a49190610499565b6100bf565b005b6000600254905090565b6000600154905090565b655af3107a40003414610107576040517f08c379a00000000000000000000000000000000000000000000000000000000081526004016100fe90610565565b60405180910390fd5b60018054101561014c576040517f08c379a0000000000000000000000000000000000000000000000000000000008152600401610143906105d1565b60405180910390fd5b6001600081548092919061015f90610620565b9190505550600360405180606001604052803373ffffffffffffffffffffffffffffffffffffffff168152602001600054815260200183815250908060018154018082558091505060019003906000526020600020906003020160009091909190915060008201518160000160006101000a81548173ffffffffffffffffffffffffffffffffffffffff021916908373ffffffffffffffffffffffffffffffffffffffff1602179055506020820151816001015560408201518160020190816102289190610860565b505050346002600082825461023d9190610932565b925050819055507fa873e16c61cc4824cf5da3255a5115bdd04e9064e7fdeaaf96492270a1a6487f600254600154604051610279929190610966565b60405180910390a160006001540361029457610293610297565b5b50565b60006040518060400160405280600581526020017f313438323300000000000000000000000000000000000000000000000000000081525090507f1a4dba73a69b04aa73a98f6eb6fb0c2051a3e75ea7104451412dc1781bf978198160405161030091906109f2565b60405180910390a150565b6000819050919050565b61031e8161030b565b82525050565b60006020820190506103396000830184610315565b92915050565b6000604051905090565b600080fd5b600080fd5b600080fd5b600080fd5b6000601f19601f8301169050919050565b7f4e487b7100000000000000000000000000000000000000000000000000000000600052604160045260246000fd5b6103a68261035d565b810181811067ffffffffffffffff821117156103c5576103c461036e565b5b80604052505050565b60006103d861033f565b90506103e4828261039d565b919050565b600067ffffffffffffffff8211156104045761040361036e565b5b61040d8261035d565b9050602081019050919050565b82818337600083830152505050565b600061043c610437846103e9565b6103ce565b90508281526020810184848401111561045857610457610358565b5b61046384828561041a565b509392505050565b600082601f8301126104805761047f610353565b5b8135610490848260208601610429565b91505092915050565b6000602082840312156104af576104ae610349565b5b600082013567ffffffffffffffff8111156104cd576104cc61034e565b5b6104d98482850161046b565b91505092915050565b600082825260208201905092915050565b7f4b656e6f3a2056616c756520646f6573206e6f74206d6174636820656e74727960008201527f2066656500000000000000000000000000000000000000000000000000000000602082015250565b600061054f6024836104e2565b915061055a826104f3565b604082019050919050565b6000602082019050818103600083015261057e81610542565b9050919050565b7f63616e277420626574207768696c65206472617720696e2070726f6772657373600082015250565b60006105bb6020836104e2565b91506105c682610585565b602082019050919050565b600060208201905081810360008301526105ea816105ae565b9050919050565b7f4e487b7100000000000000000000000000000000000000000000000000000000600052601160045260246000fd5b600061062b8261030b565b91506000820361063e5761063d6105f1565b5b600182039050919050565b600081519050919050565b7f4e487b7100000000000000000000000000000000000000000000000000000000600052602260045260246000fd5b6000600282049050600182168061069b57607f821691505b6020821081036106ae576106ad610654565b5b50919050565b60008190508160005260206000209050919050565b60006020601f8301049050919050565b600082821b905092915050565b6000600883026107167fffffffffffffffffffffffffffffffffffffffffffffffffffffffffffffffff826106d9565b61072086836106d9565b95508019841693508086168417925050509392505050565b6000819050919050565b600061075d6107586107538461030b565b610738565b61030b565b9050919050565b6000819050919050565b61077783610742565b61078b61078382610764565b8484546106e6565b825550505050565b600090565b6107a0610793565b6107ab81848461076e565b505050565b5b818110156107cf576107c4600082610798565b6001810190506107b1565b5050565b601f821115610814576107e5816106b4565b6107ee846106c9565b810160208510156107fd578190505b610811610809856106c9565b8301826107b0565b50505b505050565b600082821c905092915050565b600061083760001984600802610819565b1980831691505092915050565b60006108508383610826565b9150826002028217905092915050565b61086982610649565b67ffffffffffffffff8111156108825761088161036e565b5b61088c8254610683565b6108978282856107d3565b600060209050601f8311600181146108ca57600084156108b8578287015190505b6108c28582610844565b86555061092a565b601f1984166108d8866106b4565b60005b82811015610900578489015182556001820191506020850194506020810190506108db565b8683101561091d5784890151610919601f891682610826565b8355505b6001600288020188555050505b505050505050565b600061093d8261030b565b91506109488361030b565b92508282019050808211156109605761095f6105f1565b5b92915050565b600060408201905061097b6000830185610315565b6109886020830184610315565b9392505050565b60005b838110156109ad578082015181840152602081019050610992565b60008484015250505050565b60006109c482610649565b6109ce81856104e2565b93506109de81856020860161098f565b6109e78161035d565b840191505092915050565b60006020820190508181036000830152610a0c81846109b9565b90509291505056fea264697066735822122099ffdf974800b33bf75b5e83414fc87580a82a7ae0d2963901d04adff50a073264736f6c63430008130033",
  "immutableReferences": {},
  "source": "// SPDX-License-Identifier: MIT\r\npragma solidity >=0.8.19;\r\n\r\ncontract Keno {\r\n\r\n\tstruct Bet {\r\n\t\taddress payable player;\r\n\t\tuint round;\r\n\t\tstring numbers;\r\n\t}\r\n\r\n\tuint constant entry_fee = 0.0001 ether;\r\n\tuint round = 0;\r\n\tuint draw_count_down = 20;\r\n\tuint price_pool = 0;\r\n\r\n\tBet[] bets;\r\n\r\n\tevent PricePoolUpdated(uint256 new_price, uint new_draw);\r\n\tevent drawEnded(string);\r\n\r\n\tfunction createBet(string memory numbers) external payable {\r\n\t \trequire(\r\n            msg.value == entry_fee,\r\n            \"Keno: Value does not match entry fee\"\r\n        );\r\n\t\trequire(draw_count_down >= 1, \"can't bet while draw in progress\");\r\n\t\t\r\n\t\tdraw_count_down--;\r\n\t\tbets.push(Bet(payable(msg.sender), round, numbers));\r\n\t\tprice_pool += msg.value;\r\n\r\n\t\temit PricePoolUpdated(price_pool, draw_count_down);\r\n\r\n\t\tif(draw_count_down == 0) {\r\n\t\t\tdrawLotteryNumber();\r\n\t\t} \r\n\t}\r\n\r\n\tfunction drawLotteryNumber() internal {\r\n\t\t//TODO get random numbers from chainlink https://docs.chain.link/vrf/v2/direct-funding/examples/get-a-random-number\r\n\t\tstring memory numbers = \"14823\";\r\n\r\n\t\temit drawEnded(numbers);\r\n\t}\r\n\r\n\tfunction getPricePool() external view returns (uint) {\r\n\t\treturn price_pool;\r\n\t}\r\n\tfunction getDrawCountDown() external view returns (uint) {\t\r\n\t\treturn draw_count_down;\r\n\t}\r\n}\r\n",
  "sourcePath": "C:\\Users\\eebba\\Desktop\\keno\\CryptoKeno\\truffle\\contracts\\Keno.sol",
  "compiler": {
    "name": "solc",
    "version": "0.8.19+commit.7dd6d404.Emscripten.clang"
  },
  "schemaVersion": "3.4.13",
  "updatedAt": "2023-03-04T15:25:08.958Z",
  "networkType": "ethereum",
  "devdoc": {
    "kind": "dev",
    "methods": {},
    "version": 1
  },
  "userdoc": {
    "kind": "user",
    "methods": {},
    "version": 1
  }
}