{
  "contractName": "Keno",
  "abi": [
    {
      "anonymous": false,
      "inputs": [
        {
          "indexed": false,
          "internalType": "uint256",
          "name": "numbers",
          "type": "uint256"
        },
        {
          "indexed": false,
          "internalType": "uint256",
          "name": "winner_count",
          "type": "uint256"
        }
      ],
      "name": "drawEnded",
      "type": "event"
    },
    {
      "anonymous": false,
      "inputs": [
        {
          "indexed": false,
          "internalType": "uint256",
          "name": "new_price",
          "type": "uint256"
        },
        {
          "indexed": false,
          "internalType": "uint8",
          "name": "new_draw",
          "type": "uint8"
        }
      ],
      "name": "pricePoolUpdated",
      "type": "event"
    },
    {
      "stateMutability": "payable",
      "type": "fallback",
      "payable": true
    },
    {
      "stateMutability": "payable",
      "type": "receive",
      "payable": true
    },
    {
      "inputs": [
        {
          "internalType": "uint256",
          "name": "numbers",
          "type": "uint256"
        }
      ],
      "name": "createBet",
      "outputs": [],
      "stateMutability": "payable",
      "type": "function",
      "payable": true
    },
    {
      "inputs": [],
      "name": "getWinners",
      "outputs": [
        {
          "components": [
            {
              "internalType": "address payable",
              "name": "player",
              "type": "address"
            },
            {
              "internalType": "uint256",
              "name": "date",
              "type": "uint256"
            },
            {
              "internalType": "uint256",
              "name": "price",
              "type": "uint256"
            },
            {
              "internalType": "uint256",
              "name": "numbers",
              "type": "uint256"
            }
          ],
          "internalType": "struct Keno.Winner[]",
          "name": "",
          "type": "tuple[]"
        }
      ],
      "stateMutability": "view",
      "type": "function",
      "constant": true
    },
    {
      "inputs": [],
      "name": "getPricePool",
      "outputs": [
        {
          "internalType": "uint256",
          "name": "",
          "type": "uint256"
        }
      ],
      "stateMutability": "view",
      "type": "function",
      "constant": true
    },
    {
      "inputs": [],
      "name": "getDrawCountDown",
      "outputs": [
        {
          "internalType": "uint256",
          "name": "",
          "type": "uint256"
        }
      ],
      "stateMutability": "view",
      "type": "function",
      "constant": true
    }
  ],
  "bytecode": "0x608060405260026000806101000a81548160ff021916908360ff160217905550600060015534801561003057600080fd5b50610cc5806100406000396000f3fe6080604052600436106100435760003560e01c80631fec1cf71461004c5780633737815614610077578063ac793a60146100a2578063df15c37e146100be5761004a565b3661004a57005b005b34801561005857600080fd5b506100616100e9565b60405161006e919061077a565b60405180910390f35b34801561008357600080fd5b5061008c6100f3565b604051610099919061077a565b60405180910390f35b6100bc60048036038101906100b791906107c6565b61010c565b005b3480156100ca57600080fd5b506100d3610318565b6040516100e09190610947565b60405180910390f35b6000600154905090565b60008060009054906101000a900460ff1660ff16905090565b655af3107a400067ffffffffffffffff16341461015e576040517f08c379a0000000000000000000000000000000000000000000000000000000008152600401610155906109ec565b60405180910390fd5b600160008054906101000a900460ff1660ff1610156101b2576040517f08c379a00000000000000000000000000000000000000000000000000000000081526004016101a990610a58565b60405180910390fd5b60008081819054906101000a900460ff16809291906101d090610ab4565b91906101000a81548160ff021916908360ff16021790555050600260405180604001604052803373ffffffffffffffffffffffffffffffffffffffff16815260200183815250908060018154018082558091505060019003906000526020600020906002020160009091909190915060008201518160000160006101000a81548173ffffffffffffffffffffffffffffffffffffffff021916908373ffffffffffffffffffffffffffffffffffffffff16021790555060208201518160010155505034600160008282546102a49190610add565b925050819055507f9965558e292c55dcfe6528b42fa1cc7f1e8f7adebf3dcdc1613cd5126ba9621a60015460008054906101000a900460ff166040516102eb929190610b20565b60405180910390a160008060009054906101000a900460ff1660ff1603610315576103146103eb565b5b50565b60606003805480602002602001604051908101604052809291908181526020016000905b828210156103e257838290600052602060002090600402016040518060800160405290816000820160009054906101000a900473ffffffffffffffffffffffffffffffffffffffff1673ffffffffffffffffffffffffffffffffffffffff1673ffffffffffffffffffffffffffffffffffffffff16815260200160018201548152602001600282015481526020016003820154815250508152602001906001019061033c565b50505050905090565b60006139e790506000805b60028054905081101561045157826002828154811061041857610417610b49565b5b9060005260206000209060020201600101540361043e57818061043a90610b78565b9250505b808061044990610b78565b9150506103f6565b5060008111156106915760004290506000826001546104709190610bef565b9050600060018190555060005b60028054905081101561068d57846002828154811061049f5761049e610b49565b5b9060005260206000209060020201600101540361067a57600080600283815481106104cd576104cc610b49565b5b906000526020600020906002020160000160009054906101000a900473ffffffffffffffffffffffffffffffffffffffff1673ffffffffffffffffffffffffffffffffffffffff168460405161052290610c51565b60006040518083038185875af1925050503d806000811461055f576040519150601f19603f3d011682016040523d82523d6000602084013e610564565b606091505b5091509150600360405180608001604052806002868154811061058a57610589610b49565b5b906000526020600020906002020160000160009054906101000a900473ffffffffffffffffffffffffffffffffffffffff1673ffffffffffffffffffffffffffffffffffffffff16815260200187815260200186815260200189815250908060018154018082558091505060019003906000526020600020906004020160009091909190915060008201518160000160006101000a81548173ffffffffffffffffffffffffffffffffffffffff021916908373ffffffffffffffffffffffffffffffffffffffff160217905550602082015181600101556040820151816002015560608201518160030155505050505b808061068590610b78565b91505061047d565b5050505b6002600061069f91906106f7565b60026000806101000a81548160ff021916908360ff1602179055507f1ae6db4ca77d823cabcec59a0078bf630ebbd4b92442cc4419ed9926e893b4ff82826040516106eb929190610c66565b60405180910390a15050565b5080546000825560020290600052602060002090810190610718919061071b565b50565b5b8082111561075d57600080820160006101000a81549073ffffffffffffffffffffffffffffffffffffffff021916905560018201600090555060020161071c565b5090565b6000819050919050565b61077481610761565b82525050565b600060208201905061078f600083018461076b565b92915050565b600080fd5b6107a381610761565b81146107ae57600080fd5b50565b6000813590506107c08161079a565b92915050565b6000602082840312156107dc576107db610795565b5b60006107ea848285016107b1565b91505092915050565b600081519050919050565b600082825260208201905092915050565b6000819050602082019050919050565b600073ffffffffffffffffffffffffffffffffffffffff82169050919050565b600061084a8261081f565b9050919050565b61085a8161083f565b82525050565b61086981610761565b82525050565b6080820160008201516108856000850182610851565b5060208201516108986020850182610860565b5060408201516108ab6040850182610860565b5060608201516108be6060850182610860565b50505050565b60006108d0838361086f565b60808301905092915050565b6000602082019050919050565b60006108f4826107f3565b6108fe81856107fe565b93506109098361080f565b8060005b8381101561093a57815161092188826108c4565b975061092c836108dc565b92505060018101905061090d565b5085935050505092915050565b6000602082019050818103600083015261096181846108e9565b905092915050565b600082825260208201905092915050565b7f4b656e6f3a2056616c756520646f6573206e6f74206d6174636820656e74727960008201527f2066656500000000000000000000000000000000000000000000000000000000602082015250565b60006109d6602483610969565b91506109e18261097a565b604082019050919050565b60006020820190508181036000830152610a05816109c9565b9050919050565b7f63616e277420626574207768696c65206472617720696e2070726f6772657373600082015250565b6000610a42602083610969565b9150610a4d82610a0c565b602082019050919050565b60006020820190508181036000830152610a7181610a35565b9050919050565b7f4e487b7100000000000000000000000000000000000000000000000000000000600052601160045260246000fd5b600060ff82169050919050565b6000610abf82610aa7565b915060008203610ad257610ad1610a78565b5b600182039050919050565b6000610ae882610761565b9150610af383610761565b9250828201905080821115610b0b57610b0a610a78565b5b92915050565b610b1a81610aa7565b82525050565b6000604082019050610b35600083018561076b565b610b426020830184610b11565b9392505050565b7f4e487b7100000000000000000000000000000000000000000000000000000000600052603260045260246000fd5b6000610b8382610761565b91507fffffffffffffffffffffffffffffffffffffffffffffffffffffffffffffffff8203610bb557610bb4610a78565b5b600182019050919050565b7f4e487b7100000000000000000000000000000000000000000000000000000000600052601260045260246000fd5b6000610bfa82610761565b9150610c0583610761565b925082610c1557610c14610bc0565b5b828204905092915050565b600081905092915050565b50565b6000610c3b600083610c20565b9150610c4682610c2b565b600082019050919050565b6000610c5c82610c2e565b9150819050919050565b6000604082019050610c7b600083018561076b565b610c88602083018461076b565b939250505056fea2646970667358221220ea72c813181a8be52059b6b2f845404e99abfcf9578a0a7f2d2e2bbfb7611e0064736f6c63430008130033",
  "immutableReferences": {},
  "source": "// SPDX-License-Identifier: MIT\r\npragma solidity >=0.8.19;\r\n\r\ncontract Keno {\r\n\r\n\tstruct Bet {\r\n\t\taddress payable player;\r\n\t\tuint numbers;\r\n\t}\r\n\r\n\tstruct Winner {\r\n\t\taddress payable player;\r\n\t\tuint date;\r\n\t\tuint price;\r\n\t\tuint numbers;\r\n\t}\r\n\r\n\tuint64 constant entry_fee = 0.0001 ether;\r\n\tuint8 draw_count_down = 2;\r\n\tuint price_pool = 0;\r\n\r\n\tBet[] bets;\r\n\tWinner[] winners;\r\n\r\n\tevent pricePoolUpdated(uint new_price, uint8 new_draw);\r\n\tevent drawEnded(uint numbers, uint winner_count);\r\n\r\n\tfunction createBet(uint numbers) external payable {\r\n\t \trequire(\r\n            msg.value == entry_fee,\r\n            \"Keno: Value does not match entry fee\"\r\n        );\r\n\t\trequire(draw_count_down >= 1, \"can't bet while draw in progress\");\r\n\t\t\r\n\t\tdraw_count_down--;\r\n\t\tbets.push(Bet(payable(msg.sender), numbers));\r\n\t\tprice_pool += msg.value;\r\n\r\n\t\temit pricePoolUpdated(price_pool, draw_count_down);\r\n\r\n\t\tif(draw_count_down == 0) {\r\n\t\t\tdrawLotteryNumber();\r\n\t\t}\r\n\t}\r\n\r\n\tfunction drawLotteryNumber() internal {\r\n\t\t//TODO get random numbers from chainlink https://docs.chain.link/vrf/v2/direct-funding/examples/get-a-random-number\r\n\r\n\t\tuint numbers = 14823;\r\n\t\tuint winner_count = 0;\r\n\r\n\t\tfor (uint i = 0; i < bets.length; i++) { \r\n\t\t\tif(bets[i].numbers == numbers) {\r\n\t\t\t\twinner_count++;\r\n\t\t\t}\r\n      \t}\r\n\r\n\t\tif(winner_count > 0) {\r\n\t\t\tuint date = block.timestamp;\r\n\t\t\tuint price_per_winner = price_pool / winner_count;\r\n\t\t\tprice_pool = 0;\r\n\r\n\t\t\tfor (uint i = 0; i < bets.length; i++) { \r\n\t\t\t\tif(bets[i].numbers == numbers) {\r\n\t\t\t\t\t// Transfer price to player\r\n\t\t\t\t\t (bool sent, bytes memory data) = bets[i].player.call{value: price_per_winner}(\"\");\r\n\t\t\t\t\twinners.push(Winner({player: bets[i].player, date: date, price: price_per_winner, numbers: numbers}));\r\n\t\t\t\t}\r\n      \t\t}\r\n\t\t}\r\n\r\n\t\tdelete bets;\r\n\t\tdraw_count_down = 2;\r\n\r\n\t\temit drawEnded(numbers, winner_count);\r\n\t}\r\n\r\n\tfunction getWinners() external view returns (Winner[] memory) {\r\n\t\treturn winners;\r\n\t}\r\n\tfunction getPricePool() external view returns (uint) {\r\n\t\treturn price_pool;\r\n\t}\r\n\tfunction getDrawCountDown() external view returns (uint) {\t\r\n\t\treturn draw_count_down;\r\n\t}\r\n\r\n\treceive() external payable {}\r\n    fallback() external payable {}\r\n}\r\n",
  "sourcePath": "C:\\Users\\eebba\\Desktop\\keno\\CryptoKeno\\truffle\\contracts\\Keno.sol",
  "compiler": {
    "name": "solc",
    "version": "0.8.19+commit.7dd6d404.Emscripten.clang"
  },
  "schemaVersion": "3.4.13",
  "updatedAt": "2023-03-04T20:24:15.411Z",
  "networkType": "ethereum",
  "devdoc": {
    "kind": "dev",
    "methods": {},
    "version": 1
  },
  "userdoc": {
    "kind": "user",
    "methods": {},
    "version": 1
  }
}