{
  "contractName": "Keno",
  "abi": [
    {
      "inputs": [
        {
          "internalType": "string",
          "name": "numbers",
          "type": "string"
        }
      ],
      "name": "createBet",
      "outputs": [],
      "stateMutability": "payable",
      "type": "function",
      "payable": true
    },
    {
      "inputs": [],
      "name": "getPriceSum",
      "outputs": [
        {
          "internalType": "uint256",
          "name": "",
          "type": "uint256"
        }
      ],
      "stateMutability": "view",
      "type": "function",
      "constant": true
    },
    {
      "inputs": [],
      "name": "getPlayers",
      "outputs": [
        {
          "components": [
            {
              "internalType": "address payable",
              "name": "better",
              "type": "address"
            },
            {
              "internalType": "string",
              "name": "numbers",
              "type": "string"
            }
          ],
          "internalType": "struct Keno.Player[]",
          "name": "",
          "type": "tuple[]"
        }
      ],
      "stateMutability": "view",
      "type": "function",
      "constant": true
    }
  ],
  "bytecode": "0x608060405261c35060005534801561001657600080fd5b50610ae3806100266000396000f3fe6080604052600436106100345760003560e01c80638b5b9ccc14610039578063b3a2357814610064578063cdd4214814610080575b600080fd5b34801561004557600080fd5b5061004e6100ab565b60405161005b91906104e1565b60405180910390f35b61007e6004803603810190610079919061064c565b6101f2565b005b34801561008c57600080fd5b50610095610307565b6040516100a291906106ae565b60405180910390f35b60606002805480602002602001604051908101604052809291908181526020016000905b828210156101e957838290600052602060002090600202016040518060400160405290816000820160009054906101000a900473ffffffffffffffffffffffffffffffffffffffff1673ffffffffffffffffffffffffffffffffffffffff1673ffffffffffffffffffffffffffffffffffffffff168152602001600182018054610158906106f8565b80601f0160208091040260200160405190810160405280929190818152602001828054610184906106f8565b80156101d15780601f106101a6576101008083540402835291602001916101d1565b820191906000526020600020905b8154815290600101906020018083116101b457829003601f168201915b505050505081525050815260200190600101906100cf565b50505050905090565b6000543414610236576040517f08c379a000000000000000000000000000000000000000000000000000000000815260040161022d906107ac565b60405180910390fd5b600260405180604001604052803373ffffffffffffffffffffffffffffffffffffffff16815260200183815250908060018154018082558091505060019003906000526020600020906002020160009091909190915060008201518160000160006101000a81548173ffffffffffffffffffffffffffffffffffffffff021916908373ffffffffffffffffffffffffffffffffffffffff16021790555060208201518160010190816102e89190610978565b50505034600160008282546102fd9190610a79565b9250508190555050565b6000600154905090565b600081519050919050565b600082825260208201905092915050565b6000819050602082019050919050565b600073ffffffffffffffffffffffffffffffffffffffff82169050919050565b60006103688261033d565b9050919050565b6103788161035d565b82525050565b600081519050919050565b600082825260208201905092915050565b60005b838110156103b857808201518184015260208101905061039d565b60008484015250505050565b6000601f19601f8301169050919050565b60006103e08261037e565b6103ea8185610389565b93506103fa81856020860161039a565b610403816103c4565b840191505092915050565b6000604083016000830151610426600086018261036f565b506020830151848203602086015261043e82826103d5565b9150508091505092915050565b6000610457838361040e565b905092915050565b6000602082019050919050565b600061047782610311565b610481818561031c565b9350836020820285016104938561032d565b8060005b858110156104cf57848403895281516104b0858261044b565b94506104bb8361045f565b925060208a01995050600181019050610497565b50829750879550505050505092915050565b600060208201905081810360008301526104fb818461046c565b905092915050565b6000604051905090565b600080fd5b600080fd5b600080fd5b600080fd5b7f4e487b7100000000000000000000000000000000000000000000000000000000600052604160045260246000fd5b610559826103c4565b810181811067ffffffffffffffff8211171561057857610577610521565b5b80604052505050565b600061058b610503565b90506105978282610550565b919050565b600067ffffffffffffffff8211156105b7576105b6610521565b5b6105c0826103c4565b9050602081019050919050565b82818337600083830152505050565b60006105ef6105ea8461059c565b610581565b90508281526020810184848401111561060b5761060a61051c565b5b6106168482856105cd565b509392505050565b600082601f83011261063357610632610517565b5b81356106438482602086016105dc565b91505092915050565b6000602082840312156106625761066161050d565b5b600082013567ffffffffffffffff8111156106805761067f610512565b5b61068c8482850161061e565b91505092915050565b6000819050919050565b6106a881610695565b82525050565b60006020820190506106c3600083018461069f565b92915050565b7f4e487b7100000000000000000000000000000000000000000000000000000000600052602260045260246000fd5b6000600282049050600182168061071057607f821691505b602082108103610723576107226106c9565b5b50919050565b600082825260208201905092915050565b7f4b656e6f3a2056616c756520646f6573206e6f74206d6174636820706172746960008201527f6369706174696f6e206665650000000000000000000000000000000000000000602082015250565b6000610796602c83610729565b91506107a18261073a565b604082019050919050565b600060208201905081810360008301526107c581610789565b9050919050565b60008190508160005260206000209050919050565b60006020601f8301049050919050565b600082821b905092915050565b60006008830261082e7fffffffffffffffffffffffffffffffffffffffffffffffffffffffffffffffff826107f1565b61083886836107f1565b95508019841693508086168417925050509392505050565b6000819050919050565b600061087561087061086b84610695565b610850565b610695565b9050919050565b6000819050919050565b61088f8361085a565b6108a361089b8261087c565b8484546107fe565b825550505050565b600090565b6108b86108ab565b6108c3818484610886565b505050565b5b818110156108e7576108dc6000826108b0565b6001810190506108c9565b5050565b601f82111561092c576108fd816107cc565b610906846107e1565b81016020851015610915578190505b610929610921856107e1565b8301826108c8565b50505b505050565b600082821c905092915050565b600061094f60001984600802610931565b1980831691505092915050565b6000610968838361093e565b9150826002028217905092915050565b6109818261037e565b67ffffffffffffffff81111561099a57610999610521565b5b6109a482546106f8565b6109af8282856108eb565b600060209050601f8311600181146109e257600084156109d0578287015190505b6109da858261095c565b865550610a42565b601f1984166109f0866107cc565b60005b82811015610a18578489015182556001820191506020850194506020810190506109f3565b86831015610a355784890151610a31601f89168261093e565b8355505b6001600288020188555050505b505050505050565b7f4e487b7100000000000000000000000000000000000000000000000000000000600052601160045260246000fd5b6000610a8482610695565b9150610a8f83610695565b9250828201905080821115610aa757610aa6610a4a565b5b9291505056fea2646970667358221220bccc791fd08ee445cda27a4c864537799388953066e25a2c95b3808f03de3e9564736f6c63430008130033",
  "immutableReferences": {},
  "source": "// SPDX-License-Identifier: MIT\npragma solidity ^0.8.19;\n\ncontract Keno {\n\n\tstruct Player {\n\t\taddress payable better;\n\t\tstring numbers;\n\t}\n\n\tuint participation_fee = 50000;\n\tuint price_sum;\n\tPlayer[] players;\n\n\tfunction createBet(string memory numbers) external payable {\n\t require(\n            msg.value == participation_fee,\n            \"Keno: Value does not match participation fee\"\n        );\n\n\t\tplayers.push(Player(payable(msg.sender), numbers));\n\t\tprice_sum += msg.value;\n\t}\n\n\tfunction getPriceSum() external view returns (uint) {\n\t\treturn price_sum;\n\t}\n\n\tfunction getPlayers() external view returns (Player[] memory) {\n\t\treturn players;\n\t}\n}\n",
  "sourcePath": "C:\\Users\\eebba\\Desktop\\keno\\CryptoKeno\\truffle\\contracts\\Keno.sol",
  "compiler": {
    "name": "solc",
    "version": "0.8.19+commit.7dd6d404.Emscripten.clang"
  },
  "schemaVersion": "3.4.9",
  "updatedAt": "2023-03-03T17:14:59.274Z",
  "networkType": "ethereum",
  "devdoc": {
    "kind": "dev",
    "methods": {},
    "version": 1
  },
  "userdoc": {
    "kind": "user",
    "methods": {},
    "version": 1
  }
}