{
  "contractName": "Keno",
  "abi": [
    {
      "inputs": [],
      "stateMutability": "nonpayable",
      "type": "constructor"
    },
    {
      "anonymous": false,
      "inputs": [
        {
          "indexed": false,
          "internalType": "uint256",
          "name": "numbers",
          "type": "uint256"
        },
        {
          "indexed": false,
          "internalType": "uint256",
          "name": "winner_count",
          "type": "uint256"
        }
      ],
      "name": "drawEnded",
      "type": "event"
    },
    {
      "anonymous": false,
      "inputs": [
        {
          "indexed": false,
          "internalType": "uint256",
          "name": "new_price",
          "type": "uint256"
        },
        {
          "indexed": false,
          "internalType": "uint8",
          "name": "new_draw",
          "type": "uint8"
        }
      ],
      "name": "pricePoolUpdated",
      "type": "event"
    },
    {
      "stateMutability": "payable",
      "type": "fallback",
      "payable": true
    },
    {
      "stateMutability": "payable",
      "type": "receive",
      "payable": true
    },
    {
      "inputs": [
        {
          "internalType": "uint256",
          "name": "numbers",
          "type": "uint256"
        }
      ],
      "name": "createBet",
      "outputs": [],
      "stateMutability": "payable",
      "type": "function",
      "payable": true
    },
    {
      "inputs": [],
      "name": "getWinners",
      "outputs": [
        {
          "components": [
            {
              "internalType": "address payable",
              "name": "player",
              "type": "address"
            },
            {
              "internalType": "uint256",
              "name": "date",
              "type": "uint256"
            },
            {
              "internalType": "uint256",
              "name": "price",
              "type": "uint256"
            },
            {
              "internalType": "uint256",
              "name": "numbers",
              "type": "uint256"
            }
          ],
          "internalType": "struct Keno.Winner[]",
          "name": "",
          "type": "tuple[]"
        }
      ],
      "stateMutability": "view",
      "type": "function",
      "constant": true
    },
    {
      "inputs": [],
      "name": "getPricePool",
      "outputs": [
        {
          "internalType": "uint256",
          "name": "",
          "type": "uint256"
        }
      ],
      "stateMutability": "view",
      "type": "function",
      "constant": true
    },
    {
      "inputs": [],
      "name": "getDrawCountDown",
      "outputs": [
        {
          "internalType": "uint256",
          "name": "",
          "type": "uint256"
        }
      ],
      "stateMutability": "view",
      "type": "function",
      "constant": true
    },
    {
      "inputs": [],
      "name": "getActiveBet",
      "outputs": [
        {
          "components": [
            {
              "internalType": "address payable",
              "name": "player",
              "type": "address"
            },
            {
              "internalType": "uint256",
              "name": "numbers",
              "type": "uint256"
            }
          ],
          "internalType": "struct Keno.Bet",
          "name": "",
          "type": "tuple"
        }
      ],
      "stateMutability": "view",
      "type": "function",
      "constant": true
    },
    {
      "inputs": [],
      "name": "deposit",
      "outputs": [],
      "stateMutability": "payable",
      "type": "function",
      "payable": true
    },
    {
      "inputs": [
        {
          "internalType": "uint256",
          "name": "amount",
          "type": "uint256"
        }
      ],
      "name": "withdraw",
      "outputs": [],
      "stateMutability": "payable",
      "type": "function",
      "payable": true
    },
    {
      "inputs": [],
      "name": "isOwner",
      "outputs": [
        {
          "internalType": "bool",
          "name": "",
          "type": "bool"
        }
      ],
      "stateMutability": "view",
      "type": "function",
      "constant": true
    },
    {
      "inputs": [
        {
          "internalType": "uint64",
          "name": "amount",
          "type": "uint64"
        }
      ],
      "name": "changeEntryFee",
      "outputs": [],
      "stateMutability": "nonpayable",
      "type": "function"
    },
    {
      "inputs": [
        {
          "internalType": "uint64",
          "name": "amount",
          "type": "uint64"
        }
      ],
      "name": "changeChainlinkFee",
      "outputs": [],
      "stateMutability": "nonpayable",
      "type": "function"
    },
    {
      "inputs": [
        {
          "internalType": "uint8",
          "name": "amount",
          "type": "uint8"
        }
      ],
      "name": "changeDrawCountDown",
      "outputs": [],
      "stateMutability": "nonpayable",
      "type": "function"
    }
  ],
  "bytecode": "0x60806040526611c37937e08000600060146101000a81548167ffffffffffffffff021916908367ffffffffffffffff160217905550660110d9316ec000600160006101000a81548167ffffffffffffffff021916908367ffffffffffffffff1602179055506002600160086101000a81548160ff021916908360ff160217905550600060025534801561009157600080fd5b50336000806101000a81548173ffffffffffffffffffffffffffffffffffffffff021916908373ffffffffffffffffffffffffffffffffffffffff160217905550611545806100e16000396000f3fe6080604052600436106100a05760003560e01c80638f32d59b116100645780638f32d59b1461016d578063936722dc14610198578063ac793a60146101c3578063d0e30db0146101df578063db593c44146101e9578063df15c37e14610212576100a7565b80631fec1cf7146100a95780632e1a7d4d146100d457806337378156146100f0578063747af9091461011b5780638310771414610144576100a7565b366100a757005b005b3480156100b557600080fd5b506100be61023d565b6040516100cb9190610e14565b60405180910390f35b6100ee60048036038101906100e99190610e60565b610247565b005b3480156100fc57600080fd5b50610105610382565b6040516101129190610e14565b60405180910390f35b34801561012757600080fd5b50610142600480360381019061013d9190610ecd565b61039c565b005b34801561015057600080fd5b5061016b60048036038101906101669190610ecd565b610456565b005b34801561017957600080fd5b50610182610510565b60405161018f9190610f15565b60405180910390f35b3480156101a457600080fd5b506101ad610567565b6040516101ba9190610faf565b60405180910390f35b6101dd60048036038101906101d89190610e60565b6106b0565b005b6101e76108fc565b005b3480156101f557600080fd5b50610210600480360381019061020b9190611003565b6108fe565b005b34801561021e57600080fd5b506102276109aa565b6040516102349190611134565b60405180910390f35b6000600254905090565b60008054906101000a900473ffffffffffffffffffffffffffffffffffffffff1673ffffffffffffffffffffffffffffffffffffffff163373ffffffffffffffffffffffffffffffffffffffff16146102d5576040517f08c379a00000000000000000000000000000000000000000000000000000000081526004016102cc906111b3565b60405180910390fd5b80471015610318576040517f08c379a000000000000000000000000000000000000000000000000000000000815260040161030f9061121f565b60405180910390fd5b60008054906101000a900473ffffffffffffffffffffffffffffffffffffffff1673ffffffffffffffffffffffffffffffffffffffff166108fc829081150290604051600060405180830381858888f1935050505015801561037e573d6000803e3d6000fd5b5050565b6000600160089054906101000a900460ff1660ff16905090565b60008054906101000a900473ffffffffffffffffffffffffffffffffffffffff1673ffffffffffffffffffffffffffffffffffffffff163373ffffffffffffffffffffffffffffffffffffffff161461042a576040517f08c379a0000000000000000000000000000000000000000000000000000000008152600401610421906111b3565b60405180910390fd5b80600160006101000a81548167ffffffffffffffff021916908367ffffffffffffffff16021790555050565b60008054906101000a900473ffffffffffffffffffffffffffffffffffffffff1673ffffffffffffffffffffffffffffffffffffffff163373ffffffffffffffffffffffffffffffffffffffff16146104e4576040517f08c379a00000000000000000000000000000000000000000000000000000000081526004016104db906111b3565b60405180910390fd5b80600060146101000a81548167ffffffffffffffff021916908367ffffffffffffffff16021790555050565b60008060009054906101000a900473ffffffffffffffffffffffffffffffffffffffff1673ffffffffffffffffffffffffffffffffffffffff163373ffffffffffffffffffffffffffffffffffffffff1614905090565b61056f610d61565b60005b60038054905081101561069f573373ffffffffffffffffffffffffffffffffffffffff16600382815481106105aa576105a961123f565b5b906000526020600020906002020160000160009054906101000a900473ffffffffffffffffffffffffffffffffffffffff1673ffffffffffffffffffffffffffffffffffffffff160361068c576003818154811061060b5761060a61123f565b5b90600052602060002090600202016040518060400160405290816000820160009054906101000a900473ffffffffffffffffffffffffffffffffffffffff1673ffffffffffffffffffffffffffffffffffffffff1673ffffffffffffffffffffffffffffffffffffffff1681526020016001820154815250509150506106ad565b80806106979061129d565b915050610572565b506106a8610d61565b809150505b90565b600060149054906101000a900467ffffffffffffffff1667ffffffffffffffff163414610712576040517f08c379a000000000000000000000000000000000000000000000000000000000815260040161070990611331565b60405180910390fd5b60018060089054906101000a900460ff1660ff161015610767576040517f08c379a000000000000000000000000000000000000000000000000000000000815260040161075e9061139d565b60405180910390fd5b6001600881819054906101000a900460ff1680929190610786906113bd565b91906101000a81548160ff021916908360ff16021790555050600360405180604001604052803373ffffffffffffffffffffffffffffffffffffffff16815260200183815250908060018154018082558091505060019003906000526020600020906002020160009091909190915060008201518160000160006101000a81548173ffffffffffffffffffffffffffffffffffffffff021916908373ffffffffffffffffffffffffffffffffffffffff160217905550602082015181600101555050600160009054906101000a900467ffffffffffffffff1667ffffffffffffffff163461087491906113e6565b60026000828254610885919061141a565b925050819055507f9965558e292c55dcfe6528b42fa1cc7f1e8f7adebf3dcdc1613cd5126ba9621a600254600160089054906101000a900460ff166040516108ce92919061145d565b60405180910390a16000600160089054906101000a900460ff1660ff16036108f9576108f8610a7d565b5b50565b565b60008054906101000a900473ffffffffffffffffffffffffffffffffffffffff1673ffffffffffffffffffffffffffffffffffffffff163373ffffffffffffffffffffffffffffffffffffffff161461098c576040517f08c379a0000000000000000000000000000000000000000000000000000000008152600401610983906111b3565b60405180910390fd5b80600160086101000a81548160ff021916908360ff16021790555050565b60606004805480602002602001604051908101604052809291908181526020016000905b82821015610a7457838290600052602060002090600402016040518060800160405290816000820160009054906101000a900473ffffffffffffffffffffffffffffffffffffffff1673ffffffffffffffffffffffffffffffffffffffff1673ffffffffffffffffffffffffffffffffffffffff1681526020016001820154815260200160028201548152602001600382015481525050815260200190600101906109ce565b50505050905090565b60006139e790506000805b600380549050811015610ae3578260038281548110610aaa57610aa961123f565b5b90600052602060002090600202016001015403610ad0578180610acc9061129d565b9250505b8080610adb9061129d565b915050610a88565b506000811115610cfa576000429050600082600254610b0291906114b5565b9050600060028190555060005b600380549050811015610cf6578460038281548110610b3157610b3061123f565b5b90600052602060002090600202016001015403610ce35760038181548110610b5c57610b5b61123f565b5b906000526020600020906002020160000160009054906101000a900473ffffffffffffffffffffffffffffffffffffffff1673ffffffffffffffffffffffffffffffffffffffff166108fc839081150290604051600060405180830381858888f19350505050158015610bd3573d6000803e3d6000fd5b506004604051806080016040528060038481548110610bf557610bf461123f565b5b906000526020600020906002020160000160009054906101000a900473ffffffffffffffffffffffffffffffffffffffff1673ffffffffffffffffffffffffffffffffffffffff16815260200185815260200184815260200187815250908060018154018082558091505060019003906000526020600020906004020160009091909190915060008201518160000160006101000a81548173ffffffffffffffffffffffffffffffffffffffff021916908373ffffffffffffffffffffffffffffffffffffffff16021790555060208201518160010155604082015181600201556060820151816003015550505b8080610cee9061129d565b915050610b0f565b5050505b60036000610d089190610d91565b6002600160086101000a81548160ff021916908360ff1602179055507f1ae6db4ca77d823cabcec59a0078bf630ebbd4b92442cc4419ed9926e893b4ff8282604051610d559291906114e6565b60405180910390a15050565b6040518060400160405280600073ffffffffffffffffffffffffffffffffffffffff168152602001600081525090565b5080546000825560020290600052602060002090810190610db29190610db5565b50565b5b80821115610df757600080820160006101000a81549073ffffffffffffffffffffffffffffffffffffffff0219169055600182016000905550600201610db6565b5090565b6000819050919050565b610e0e81610dfb565b82525050565b6000602082019050610e296000830184610e05565b92915050565b600080fd5b610e3d81610dfb565b8114610e4857600080fd5b50565b600081359050610e5a81610e34565b92915050565b600060208284031215610e7657610e75610e2f565b5b6000610e8484828501610e4b565b91505092915050565b600067ffffffffffffffff82169050919050565b610eaa81610e8d565b8114610eb557600080fd5b50565b600081359050610ec781610ea1565b92915050565b600060208284031215610ee357610ee2610e2f565b5b6000610ef184828501610eb8565b91505092915050565b60008115159050919050565b610f0f81610efa565b82525050565b6000602082019050610f2a6000830184610f06565b92915050565b600073ffffffffffffffffffffffffffffffffffffffff82169050919050565b6000610f5b82610f30565b9050919050565b610f6b81610f50565b82525050565b610f7a81610dfb565b82525050565b604082016000820151610f966000850182610f62565b506020820151610fa96020850182610f71565b50505050565b6000604082019050610fc46000830184610f80565b92915050565b600060ff82169050919050565b610fe081610fca565b8114610feb57600080fd5b50565b600081359050610ffd81610fd7565b92915050565b60006020828403121561101957611018610e2f565b5b600061102784828501610fee565b91505092915050565b600081519050919050565b600082825260208201905092915050565b6000819050602082019050919050565b6080820160008201516110726000850182610f62565b5060208201516110856020850182610f71565b5060408201516110986040850182610f71565b5060608201516110ab6060850182610f71565b50505050565b60006110bd838361105c565b60808301905092915050565b6000602082019050919050565b60006110e182611030565b6110eb818561103b565b93506110f68361104c565b8060005b8381101561112757815161110e88826110b1565b9750611119836110c9565b9250506001810190506110fa565b5085935050505092915050565b6000602082019050818103600083015261114e81846110d6565b905092915050565b600082825260208201905092915050565b7f4e6f74206f776e65720000000000000000000000000000000000000000000000600082015250565b600061119d600983611156565b91506111a882611167565b602082019050919050565b600060208201905081810360008301526111cc81611190565b9050919050565b7f4e6f7420656e6f7567682062616c616e63650000000000000000000000000000600082015250565b6000611209601283611156565b9150611214826111d3565b602082019050919050565b60006020820190508181036000830152611238816111fc565b9050919050565b7f4e487b7100000000000000000000000000000000000000000000000000000000600052603260045260246000fd5b7f4e487b7100000000000000000000000000000000000000000000000000000000600052601160045260246000fd5b60006112a882610dfb565b91507fffffffffffffffffffffffffffffffffffffffffffffffffffffffffffffffff82036112da576112d961126e565b5b600182019050919050565b7f56616c756520646f6573206e6f74206d6174636820656e747279206665650000600082015250565b600061131b601e83611156565b9150611326826112e5565b602082019050919050565b6000602082019050818103600083015261134a8161130e565b9050919050565b7f43616e277420626574207768696c65206472617720696e2070726f6772657373600082015250565b6000611387602083611156565b915061139282611351565b602082019050919050565b600060208201905081810360008301526113b68161137a565b9050919050565b60006113c882610fca565b9150600082036113db576113da61126e565b5b600182039050919050565b60006113f182610dfb565b91506113fc83610dfb565b92508282039050818111156114145761141361126e565b5b92915050565b600061142582610dfb565b915061143083610dfb565b92508282019050808211156114485761144761126e565b5b92915050565b61145781610fca565b82525050565b60006040820190506114726000830185610e05565b61147f602083018461144e565b9392505050565b7f4e487b7100000000000000000000000000000000000000000000000000000000600052601260045260246000fd5b60006114c082610dfb565b91506114cb83610dfb565b9250826114db576114da611486565b5b828204905092915050565b60006040820190506114fb6000830185610e05565b6115086020830184610e05565b939250505056fea2646970667358221220f0b8bb304af61829ca8bbe28589c65b03c1c318540c23f189c9c40e54c5ae6fe64736f6c63430008130033",
  "immutableReferences": {},
  "source": "// SPDX-License-Identifier: MIT\r\npragma solidity >=0.8.19;\r\n\r\ncontract Keno {\r\n\r\n\tstruct Bet {\r\n\t\taddress payable player;\r\n\t\tuint numbers;\r\n\t}\r\n\r\n\tstruct Winner {\r\n\t\taddress payable player;\r\n\t\tuint date;\r\n\t\tuint price;\r\n\t\tuint numbers;\r\n\t}\r\n\r\n\taddress payable owner;\r\n\tuint64 entry_fee = 0.005 ether;\r\n\tuint64 chainlink_fee = 0.0003 ether;\r\n\tuint8 draw_count_down = 2;\r\n\tuint price_pool = 0;\r\n\r\n\tBet[] bets;\r\n\tWinner[] winners;\r\n\r\n\tevent pricePoolUpdated(uint new_price, uint8 new_draw);\r\n\tevent drawEnded(uint numbers, uint winner_count);\r\n\r\n\tconstructor() {\r\n\t\towner = payable(msg.sender);\r\n\t}\r\n\r\n\tfunction createBet(uint numbers) external payable {\r\n\t \trequire(\r\n            msg.value == entry_fee,\r\n            \"Value does not match entry fee\"\r\n        );\r\n\t\trequire(draw_count_down >= 1, \"Can't bet while draw in progress\");\r\n\t\t\r\n\t\tdraw_count_down--;\r\n\t\tbets.push(Bet(payable(msg.sender), numbers));\r\n\t\tprice_pool += (msg.value - chainlink_fee);\r\n\r\n\t\temit pricePoolUpdated(price_pool, draw_count_down);\r\n\r\n\t\tif(draw_count_down == 0) {\r\n\t\t\tdrawLotteryNumber();\r\n\t\t}\r\n\t}\r\n\r\n\tfunction drawLotteryNumber() private {\r\n\t\t//TODO get random numbers from chainlink https://docs.chain.link/vrf/v2/direct-funding/examples/get-a-random-number\r\n\r\n\t\tuint numbers = 14823;\r\n\t\tuint winner_count = 0;\r\n\r\n\t\tfor (uint i = 0; i < bets.length; i++) { \r\n\t\t\tif(bets[i].numbers == numbers) {\r\n\t\t\t\twinner_count++;\r\n\t\t\t}\r\n      \t}\r\n\r\n\t\tif(winner_count > 0) {\r\n\t\t\tuint date = block.timestamp;\r\n\t\t\tuint price_per_winner = price_pool / winner_count;\r\n\t\t\tprice_pool = 0;\r\n\r\n\t\t\tfor (uint i = 0; i < bets.length; i++) { \r\n\t\t\t\tif(bets[i].numbers == numbers) {\r\n\t\t\t\t\tbets[i].player.transfer(price_per_winner);\r\n\t\t\t\t\twinners.push(Winner({player: bets[i].player, date: date, price: price_per_winner, numbers: numbers}));\r\n\t\t\t\t}\r\n      \t\t}\r\n\t\t}\r\n\r\n\t\tdelete bets;\r\n\t\tdraw_count_down = 2;\r\n\r\n\t\temit drawEnded(numbers, winner_count);\r\n\t}\r\n\r\n\tfunction getWinners() external view returns (Winner[] memory) {\r\n\t\treturn winners;\r\n\t}\r\n\tfunction getPricePool() external view returns (uint) {\r\n\t\treturn price_pool;\r\n\t}\r\n\tfunction getDrawCountDown() external view returns (uint) {\t\r\n\t\treturn draw_count_down;\r\n\t}\r\n\tfunction getActiveBet() external view returns (Bet memory) {\r\n\t\tfor(uint i = 0; i < bets.length; i++){\r\n\t\t\tif(bets[i].player == msg.sender) return bets[i];\r\n\t\t}\r\n\t\tBet memory emptyBet;\r\n\t\treturn emptyBet;\r\n\t}\r\n\tfunction deposit () external payable {}\r\n\r\n\tfunction withdraw(uint256 amount) external payable onlyOwner {\r\n\t\trequire(address(this).balance >= amount, \"Not enough balance\");\r\n\r\n\t\towner.transfer(amount);\r\n\t}\r\n\r\n\tfunction isOwner() external view returns(bool){\r\n\t\treturn msg.sender == owner;\r\n\t}\r\n\r\n\tfunction changeEntryFee(uint64 amount) external onlyOwner {\r\n\t\tentry_fee = amount;\r\n\t} \r\n\t\r\n\tfunction changeChainlinkFee(uint64 amount) external onlyOwner {\r\n\t\tchainlink_fee = amount;\r\n\t} \r\n\r\n\tfunction changeDrawCountDown(uint8 amount) external onlyOwner {\r\n\t\tdraw_count_down = amount;\r\n\t} \r\n\r\n\treceive() external payable {}\r\n    fallback() external payable {}\r\n\r\n\t modifier onlyOwner() {\r\n        require(msg.sender == owner, \"Not owner\");\r\n        _;\r\n    }\r\n}\r\n",
  "sourcePath": "C:\\Users\\eebba\\Desktop\\keno\\CryptoKeno\\truffle\\contracts\\Keno.sol",
  "compiler": {
    "name": "solc",
    "version": "0.8.19+commit.7dd6d404.Emscripten.clang"
  },
  "schemaVersion": "3.4.13",
  "updatedAt": "2023-03-05T18:36:33.352Z",
  "networkType": "ethereum",
  "devdoc": {
    "kind": "dev",
    "methods": {},
    "version": 1
  },
  "userdoc": {
    "kind": "user",
    "methods": {},
    "version": 1
  }
}