{
  "contractName": "Keno",
  "abi": [
    {
      "inputs": [],
      "stateMutability": "nonpayable",
      "type": "constructor"
    },
    {
      "anonymous": false,
      "inputs": [
        {
          "indexed": false,
          "internalType": "uint256",
          "name": "numbers",
          "type": "uint256"
        },
        {
          "indexed": false,
          "internalType": "uint256",
          "name": "winner_count",
          "type": "uint256"
        }
      ],
      "name": "drawEnded",
      "type": "event"
    },
    {
      "anonymous": false,
      "inputs": [
        {
          "indexed": false,
          "internalType": "uint256",
          "name": "new_price",
          "type": "uint256"
        },
        {
          "indexed": false,
          "internalType": "uint8",
          "name": "new_draw",
          "type": "uint8"
        }
      ],
      "name": "pricePoolUpdated",
      "type": "event"
    },
    {
      "stateMutability": "payable",
      "type": "fallback"
    },
    {
      "stateMutability": "payable",
      "type": "receive"
    },
    {
      "inputs": [
        {
          "internalType": "uint256",
          "name": "numbers",
          "type": "uint256"
        }
      ],
      "name": "createBet",
      "outputs": [],
      "stateMutability": "payable",
      "type": "function"
    },
    {
      "inputs": [],
      "name": "getWinners",
      "outputs": [
        {
          "components": [
            {
              "internalType": "address payable",
              "name": "player",
              "type": "address"
            },
            {
              "internalType": "uint256",
              "name": "date",
              "type": "uint256"
            },
            {
              "internalType": "uint256",
              "name": "price",
              "type": "uint256"
            },
            {
              "internalType": "uint256",
              "name": "numbers",
              "type": "uint256"
            }
          ],
          "internalType": "struct Keno.Winner[]",
          "name": "",
          "type": "tuple[]"
        }
      ],
      "stateMutability": "view",
      "type": "function"
    },
    {
      "inputs": [],
      "name": "getPricePool",
      "outputs": [
        {
          "internalType": "uint256",
          "name": "",
          "type": "uint256"
        }
      ],
      "stateMutability": "view",
      "type": "function"
    },
    {
      "inputs": [],
      "name": "getDrawCountDown",
      "outputs": [
        {
          "internalType": "uint256",
          "name": "",
          "type": "uint256"
        }
      ],
      "stateMutability": "view",
      "type": "function"
    },
    {
      "inputs": [],
      "name": "deposit",
      "outputs": [],
      "stateMutability": "payable",
      "type": "function"
    },
    {
      "inputs": [
        {
          "internalType": "uint256",
          "name": "amount",
          "type": "uint256"
        }
      ],
      "name": "withdraw",
      "outputs": [],
      "stateMutability": "payable",
      "type": "function"
    },
    {
      "inputs": [],
      "name": "isOwner",
      "outputs": [
        {
          "internalType": "bool",
          "name": "",
          "type": "bool"
        }
      ],
      "stateMutability": "view",
      "type": "function"
    }
  ],
  "bytecode": "0x60806040526002600060146101000a81548160ff021916908360ff160217905550600060015534801561003157600080fd5b50336000806101000a81548173ffffffffffffffffffffffffffffffffffffffff021916908373ffffffffffffffffffffffffffffffffffffffff160217905550610fab806100816000396000f3fe6080604052600436106100745760003560e01c80638f32d59b1161004e5780638f32d59b146100ef578063ac793a601461011a578063d0e30db014610136578063df15c37e146101405761007b565b80631fec1cf71461007d5780632e1a7d4d146100a857806337378156146100c45761007b565b3661007b57005b005b34801561008957600080fd5b5061009261016b565b60405161009f919061098a565b60405180910390f35b6100c260048036038101906100bd91906109d6565b610175565b005b3480156100d057600080fd5b506100d96102b0565b6040516100e6919061098a565b60405180910390f35b3480156100fb57600080fd5b506101046102c9565b6040516101119190610a1e565b60405180910390f35b610134600480360381019061012f91906109d6565b610320565b005b61013e61054e565b005b34801561014c57600080fd5b50610155610550565b6040516101629190610b8d565b60405180910390f35b6000600154905090565b60008054906101000a900473ffffffffffffffffffffffffffffffffffffffff1673ffffffffffffffffffffffffffffffffffffffff163373ffffffffffffffffffffffffffffffffffffffff1614610203576040517f08c379a00000000000000000000000000000000000000000000000000000000081526004016101fa90610c0c565b60405180910390fd5b80471015610246576040517f08c379a000000000000000000000000000000000000000000000000000000000815260040161023d90610c78565b60405180910390fd5b60008054906101000a900473ffffffffffffffffffffffffffffffffffffffff1673ffffffffffffffffffffffffffffffffffffffff166108fc829081150290604051600060405180830381858888f193505050501580156102ac573d6000803e3d6000fd5b5050565b60008060149054906101000a900460ff1660ff16905090565b60008060009054906101000a900473ffffffffffffffffffffffffffffffffffffffff1673ffffffffffffffffffffffffffffffffffffffff163373ffffffffffffffffffffffffffffffffffffffff1614905090565b66038d7ea4c6800067ffffffffffffffff163414610373576040517f08c379a000000000000000000000000000000000000000000000000000000000815260040161036a90610ce4565b60405180910390fd5b6001600060149054906101000a900460ff1660ff1610156103c9576040517f08c379a00000000000000000000000000000000000000000000000000000000081526004016103c090610d50565b60405180910390fd5b6000601481819054906101000a900460ff16809291906103e890610dac565b91906101000a81548160ff021916908360ff16021790555050600260405180604001604052803373ffffffffffffffffffffffffffffffffffffffff16815260200183815250908060018154018082558091505060019003906000526020600020906002020160009091909190915060008201518160000160006101000a81548173ffffffffffffffffffffffffffffffffffffffff021916908373ffffffffffffffffffffffffffffffffffffffff160217905550602082015181600101555050660110d9316ec00067ffffffffffffffff16346104c79190610dd5565b600160008282546104d89190610e09565b925050819055507f9965558e292c55dcfe6528b42fa1cc7f1e8f7adebf3dcdc1613cd5126ba9621a600154600060149054906101000a900460ff16604051610521929190610e4c565b60405180910390a160008060149054906101000a900460ff1660ff160361054b5761054a610623565b5b50565b565b60606003805480602002602001604051908101604052809291908181526020016000905b8282101561061a57838290600052602060002090600402016040518060800160405290816000820160009054906101000a900473ffffffffffffffffffffffffffffffffffffffff1673ffffffffffffffffffffffffffffffffffffffff1673ffffffffffffffffffffffffffffffffffffffff168152602001600182015481526020016002820154815260200160038201548152505081526020019060010190610574565b50505050905090565b60006139e790506000805b6002805490508110156106895782600282815481106106505761064f610e75565b5b9060005260206000209060020201600101540361067657818061067290610ea4565b9250505b808061068190610ea4565b91505061062e565b5060008111156108a05760004290506000826001546106a89190610f1b565b9050600060018190555060005b60028054905081101561089c5784600282815481106106d7576106d6610e75565b5b90600052602060002090600202016001015403610889576002818154811061070257610701610e75565b5b906000526020600020906002020160000160009054906101000a900473ffffffffffffffffffffffffffffffffffffffff1673ffffffffffffffffffffffffffffffffffffffff166108fc839081150290604051600060405180830381858888f19350505050158015610779573d6000803e3d6000fd5b50600360405180608001604052806002848154811061079b5761079a610e75565b5b906000526020600020906002020160000160009054906101000a900473ffffffffffffffffffffffffffffffffffffffff1673ffffffffffffffffffffffffffffffffffffffff16815260200185815260200184815260200187815250908060018154018082558091505060019003906000526020600020906004020160009091909190915060008201518160000160006101000a81548173ffffffffffffffffffffffffffffffffffffffff021916908373ffffffffffffffffffffffffffffffffffffffff16021790555060208201518160010155604082015181600201556060820151816003015550505b808061089490610ea4565b9150506106b5565b5050505b600260006108ae9190610907565b6002600060146101000a81548160ff021916908360ff1602179055507f1ae6db4ca77d823cabcec59a0078bf630ebbd4b92442cc4419ed9926e893b4ff82826040516108fb929190610f4c565b60405180910390a15050565b5080546000825560020290600052602060002090810190610928919061092b565b50565b5b8082111561096d57600080820160006101000a81549073ffffffffffffffffffffffffffffffffffffffff021916905560018201600090555060020161092c565b5090565b6000819050919050565b61098481610971565b82525050565b600060208201905061099f600083018461097b565b92915050565b600080fd5b6109b381610971565b81146109be57600080fd5b50565b6000813590506109d0816109aa565b92915050565b6000602082840312156109ec576109eb6109a5565b5b60006109fa848285016109c1565b91505092915050565b60008115159050919050565b610a1881610a03565b82525050565b6000602082019050610a336000830184610a0f565b92915050565b600081519050919050565b600082825260208201905092915050565b6000819050602082019050919050565b600073ffffffffffffffffffffffffffffffffffffffff82169050919050565b6000610a9082610a65565b9050919050565b610aa081610a85565b82525050565b610aaf81610971565b82525050565b608082016000820151610acb6000850182610a97565b506020820151610ade6020850182610aa6565b506040820151610af16040850182610aa6565b506060820151610b046060850182610aa6565b50505050565b6000610b168383610ab5565b60808301905092915050565b6000602082019050919050565b6000610b3a82610a39565b610b448185610a44565b9350610b4f83610a55565b8060005b83811015610b80578151610b678882610b0a565b9750610b7283610b22565b925050600181019050610b53565b5085935050505092915050565b60006020820190508181036000830152610ba78184610b2f565b905092915050565b600082825260208201905092915050565b7f4e6f74206f776e6572206f6620636f6e74726163740000000000000000000000600082015250565b6000610bf6601583610baf565b9150610c0182610bc0565b602082019050919050565b60006020820190508181036000830152610c2581610be9565b9050919050565b7f4e6f7420656e6f7567682062616c616e63650000000000000000000000000000600082015250565b6000610c62601283610baf565b9150610c6d82610c2c565b602082019050919050565b60006020820190508181036000830152610c9181610c55565b9050919050565b7f56616c756520646f6573206e6f74206d6174636820656e747279206665650000600082015250565b6000610cce601e83610baf565b9150610cd982610c98565b602082019050919050565b60006020820190508181036000830152610cfd81610cc1565b9050919050565b7f43616e277420626574207768696c65206472617720696e2070726f6772657373600082015250565b6000610d3a602083610baf565b9150610d4582610d04565b602082019050919050565b60006020820190508181036000830152610d6981610d2d565b9050919050565b7f4e487b7100000000000000000000000000000000000000000000000000000000600052601160045260246000fd5b600060ff82169050919050565b6000610db782610d9f565b915060008203610dca57610dc9610d70565b5b600182039050919050565b6000610de082610971565b9150610deb83610971565b9250828203905081811115610e0357610e02610d70565b5b92915050565b6000610e1482610971565b9150610e1f83610971565b9250828201905080821115610e3757610e36610d70565b5b92915050565b610e4681610d9f565b82525050565b6000604082019050610e61600083018561097b565b610e6e6020830184610e3d565b9392505050565b7f4e487b7100000000000000000000000000000000000000000000000000000000600052603260045260246000fd5b6000610eaf82610971565b91507fffffffffffffffffffffffffffffffffffffffffffffffffffffffffffffffff8203610ee157610ee0610d70565b5b600182019050919050565b7f4e487b7100000000000000000000000000000000000000000000000000000000600052601260045260246000fd5b6000610f2682610971565b9150610f3183610971565b925082610f4157610f40610eec565b5b828204905092915050565b6000604082019050610f61600083018561097b565b610f6e602083018461097b565b939250505056fea264697066735822122007a273ff3e2776f8c8b6e36b57384950a096565e0d54671cbd0b5716c10c7beb64736f6c63430008130033",
  "immutableReferences": {},
  "source": "// SPDX-License-Identifier: MIT\r\npragma solidity >=0.8.19;\r\n\r\ncontract Keno {\r\n\r\n\tstruct Bet {\r\n\t\taddress payable player;\r\n\t\tuint numbers;\r\n\t}\r\n\r\n\tstruct Winner {\r\n\t\taddress payable player;\r\n\t\tuint date;\r\n\t\tuint price;\r\n\t\tuint numbers;\r\n\t}\r\n\r\n\taddress payable owner;\r\n\tuint64 constant entry_fee = 0.001 ether;\r\n\tuint64 constant chainlink_fee = 0.0003 ether;\r\n\tuint8 draw_count_down = 2;\r\n\tuint price_pool = 0;\r\n\r\n\tBet[] bets;\r\n\tWinner[] winners;\r\n\r\n\tevent pricePoolUpdated(uint new_price, uint8 new_draw);\r\n\tevent drawEnded(uint numbers, uint winner_count);\r\n\r\n\tconstructor() {\r\n\t\towner = payable(msg.sender);\r\n\t}\r\n\r\n\tfunction createBet(uint numbers) external payable {\r\n\t \trequire(\r\n            msg.value == entry_fee,\r\n            \"Value does not match entry fee\"\r\n        );\r\n\t\trequire(draw_count_down >= 1, \"Can't bet while draw in progress\");\r\n\t\t\r\n\t\tdraw_count_down--;\r\n\t\tbets.push(Bet(payable(msg.sender), numbers));\r\n\t\tprice_pool += (msg.value - chainlink_fee);\r\n\r\n\t\temit pricePoolUpdated(price_pool, draw_count_down);\r\n\r\n\t\tif(draw_count_down == 0) {\r\n\t\t\tdrawLotteryNumber();\r\n\t\t}\r\n\t}\r\n\r\n\tfunction drawLotteryNumber() private {\r\n\t\t//TODO get random numbers from chainlink https://docs.chain.link/vrf/v2/direct-funding/examples/get-a-random-number\r\n\r\n\t\tuint numbers = 14823;\r\n\t\tuint winner_count = 0;\r\n\r\n\t\tfor (uint i = 0; i < bets.length; i++) { \r\n\t\t\tif(bets[i].numbers == numbers) {\r\n\t\t\t\twinner_count++;\r\n\t\t\t}\r\n      \t}\r\n\r\n\t\tif(winner_count > 0) {\r\n\t\t\tuint date = block.timestamp;\r\n\t\t\tuint price_per_winner = price_pool / winner_count;\r\n\t\t\tprice_pool = 0;\r\n\r\n\t\t\tfor (uint i = 0; i < bets.length; i++) { \r\n\t\t\t\tif(bets[i].numbers == numbers) {\r\n\t\t\t\t\tbets[i].player.transfer(price_per_winner);\r\n\t\t\t\t\twinners.push(Winner({player: bets[i].player, date: date, price: price_per_winner, numbers: numbers}));\r\n\t\t\t\t}\r\n      \t\t}\r\n\t\t}\r\n\r\n\t\tdelete bets;\r\n\t\tdraw_count_down = 2;\r\n\r\n\t\temit drawEnded(numbers, winner_count);\r\n\t}\r\n\r\n\tfunction getWinners() external view returns (Winner[] memory) {\r\n\t\treturn winners;\r\n\t}\r\n\tfunction getPricePool() external view returns (uint) {\r\n\t\treturn price_pool;\r\n\t}\r\n\tfunction getDrawCountDown() external view returns (uint) {\t\r\n\t\treturn draw_count_down;\r\n\t}\r\n\r\n\tfunction deposit () external payable {}\r\n\r\n\tfunction withdraw(uint256 amount) external payable {\r\n\t\trequire(msg.sender == owner, \"Not owner of contract\");\r\n\t\trequire(address(this).balance >= amount, \"Not enough balance\");\r\n\r\n\t\towner.transfer(amount);\r\n\t}\r\n\r\n\tfunction isOwner() external view returns(bool){\r\n\t\treturn msg.sender == owner;\r\n\t}\r\n\r\n\treceive() external payable {}\r\n    fallback() external payable {}\r\n}\r\n",
  "sourcePath": "C:\\Users\\eebba\\Desktop\\keno\\CryptoKeno\\truffle\\contracts\\Keno.sol",
  "compiler": {
    "name": "solc",
    "version": "0.8.19+commit.7dd6d404.Emscripten.clang"
  },
  "schemaVersion": "3.4.13",
  "updatedAt": "2023-03-05T16:31:17.944Z",
  "devdoc": {
    "kind": "dev",
    "methods": {},
    "version": 1
  },
  "userdoc": {
    "kind": "user",
    "methods": {},
    "version": 1
  }
}